S0150000706F77657220736176696E67732E73726563C7
S11300000C941C010C943E0A0C946B0A0C94980AF0
S11300100C94C50A0C9444010C9444010C94F20A07
S11300200C9444010C9444010C94EA090C94960831
S11300300C9444010C9444010C9444010C94440128
S11300400C9444010C9444010C9444010C94440118
S11300500C9444010C9444010C9444010C941F0B23
S11300600C9444010C9449030C9484030C944401AF
S11300700C9444010C9444010C9444010C944401E8
S11300800C9444010C9444010C9444010C944401D8
S11300900C9444010C9444010C9444010C944401C8
S11300A00C9444010C9444010C944401080B000288
S11300B002020100090400000102020000052400FC
S11300C0100105240101010424020605240600018F
S11300D00705810310004009040100020A00000022
S11300E007050202400000070583024000000000EB
S11300F00000000000002A2B28000000000000007F
S113010000000000000000000000000000002C9E21
S1130110B4A0A1A2A434A6A7A5AE362D3738271EB5
S11301201F20212223242526B333B62EB7B89F845B
S113013085868788898A8B8C8D8E8F9091929394F3
S113014095969798999A9B9C9D2F3130A3AD350431
S113015005060708090A0B0C0D0E0F1011121314D3
S113016015161718191A1B1C1DAFB1B0B5000904D8
S113017002000103000000092101010001226500C1
S11301800705840340000105010902A1010901A139
S11301900085010509190129031500250195037539
S11301A001810295017505810305010930093109B1
S11301B0381581257F750895038106C0C00501099E
S11301C006A1018502050719E029E7150025017537
S11301D00195088102950175088103950675081536
S11301E00025650507190029658100C000C18081CB
S11301F0C112010002020000404F1B01F100010185
S113020002000112010002000000404F1B01F10036
S11302100101020001537061726B46756E00555303
S11302204220494F20426F617264000403090400B4
S11302301502AA034205920511241FBECFEFD5E093
S1130240DEBFCDBF11E0A0E0B1E0E6EBF9E102C012
S113025005900D92A434B107D9F722E0A4E4B1E0EB
S113026001C01D92A935B207E1F712E0C8E3D2E05C
S113027004C02297FE010E94BB0CC033D107C9F70A
S11302800E944C0C0C94D90C0C940000CF93DF9377
S11302901F92CDB7DEB76983DC01ED91FC9102803A
S11302A0F381E02D41E050E0BE016F5F7F4F09957F
S11302B00F90DF91CF910895FC0184859585992352
S11302C034F082E00E940F0790E00196089582E0E6
S11302D00E940F0790E00895CF93DF93EC018C8583
S11302E09D8599232CF482E00E944D079D878C877D
S11302F08C859D85DF91CF910895FC01848595853A
S113030099232CF02FEF3FEF35872487089582E05F
S11303100E944D07089583E00E94E0090895CF9359
S1130320DF93EC0180910701882381F083E00E9430
S113033075079C011816190614F4932F0DC081E05B
S113034090E09B838A8380E090E006C081E090E0A7
S11303509B838A8380E090E0DF91CF910895FC0134
S113036020812E5F208342E450E06CEA70E080E854
S11303700E943C080895FC0191818081813A59F4DE
S1130380913259F547E050E060E071E080E00E946E
S11303903C0881E00895813211F5903239F467E028
S11303A070E080E091E00E946E0805C09232C9F4CA
S11303B08281809307018091000190910101A091B5
S11303C00201B0910301803B9440A105B105F1F411
S11303D08091070180FF07C019C080E0089580E084
S11303E0089581E0089587E797E790930108809343
S11303F000082BE088E190E00FB6F894A89580936C
S113040060000FBE2093600081E0089588E10FB67C
S1130410F89480936000109260000FBEA89510922B
S113042001081092000881E008951092470110928B
S1130430460188EE93E0A0E0B0E0809348019093F9
S11304404901A0934A01B0934B018EE091E090934F
S11304504501809344018FEF9FEF90935101809366
S113046050010895FC01818D228D90E0805C9F4FA6
S1130470821B91098F7399270895FC01918D828DB8
S1130480981731F0828DE80FF11D858D90E0089565
S11304908FEF9FEF0895FC01918D828D981761F085
S11304A0828DDF01A80FB11D5D968C91928D9F5FA7
S11304B09F73928F90E008958FEF9FEF0895FC0152
S11304C0848DDF01A80FB11DA35ABF4F2C91848DD9
S11304D090E001968F739078848FA689B7892C93C6
S11304E0A089B1898C9180648C93938D848D9813A9
S11304F006C00288F389E02D80818F7D8083089572
S1130500CF93DF93EC01888D81110BC01BC00FB614
S113051007FC09C0808185FF06C00EC0CE010E9481
S11305205F02EA89FB89808185FDF1CFA889B989B9
S11305308C9186FFECCF06C0A889B9898C9185FF80
S1130540F2CFECCFDF91CF9108950F931F93CF9308
S1130550DF93EC01162F9B8D8C8D981324C0E889B2
S1130560F989808185FD26C01EC00FB607FC08C02E
S1130570E889F989808185FF03C0CE010E945F026A
S11305809C8D091791F38B8DFE01E80FF11DE35A41
S1130590FF4F10830B8FEA89FB89808180628083FF
S11305A081E0888F0FC08B8D90E001968F739078D7
S11305B0082FE6CFEE89FF896083E889F989808175
S11305C08064808381E090E0DF91CF911F910F914F
S11305D00895CF92DF92EF92FF921F93CF93DF9310
S11305E0EC016A017B01122F62E17AE780E090E07E
S11305F0A70196010E94970CBA01A9014150510923
S1130600610971097695679557954795E889F98940
S113061082E08083411580E15807A8F0E889F989D0
S1130620108269E07DE380E090E0A70196010E94DA
S1130630970CDA01C9010197A109B109B695A795EB
S113064097958795AC01EC85FD855083EE85FF85F4
S11306504083188EEC89FD891083EA89FB898081A7
S113066080618083EA89FB89808188608083EA894C
S1130670FB89808180688083EA89FB8980818F7D02
S11306808083DF91CF911F91FF90EF90DF90CF9007
S113069008951F920F920FB60F9211242F938F93E8
S11306A09F93AF93BF93EF93FF93E091A401F091D5
S11306B0A501808182FD17C0E091AA01F091AB01F0
S11306C020818091AD018F5F8F739091AE01891766
S11306D079F0EDEAF1E0A081B0E0AC56BE4F5D9652
S11306E02C93808305C0E091AA01F091AB01808135
S11306F0FF91EF91BF91AF919F918F912F910F90A7
S11307000FBE0F901F9018951F920F920FB60F9265
S113071011242F933F934F935F936F937F938F9302
S11307209F93AF93BF93EF93FF9384E991E00E946B
S11307305F02FF91EF91BF91AF919F918F917F9154
S11307406F915F914F913F912F910F900FBE0F903A
S11307501F901895109297011092960188EE93E0DD
S1130760A0E0B0E08093980190939901A0939A013E
S1130770B0939B018EE191E0909395018093940155
S11307808DEC90E09093A1018093A0018CEC90E01B
S11307909093A3018093A20188EC90E09093A5012B
S11307A08093A40189EC90E09093A7018093A60123
S11307B08AEC90E09093A9018093A8018EEC90E0DC
S11307C09093AB018093AA011092AD011092AE01F7
S11307D01092AF011092B0010895FF920F931F93EE
S11307E0CF93DF93EC01F62EE881F9810480F58143
S11307F0E02D09958C01E881F9810680F781E02DCF
S11308006F2DCE010995C8019927DF91CF911F91D2
S11308100F91FF900895FC0120812F5F208349E10F
S113082050E06EE671E080E80E943C08089545E6D9
S113083050E067E871E080E80E943C080895EF9278
S1130840FF920F931F93CF93DF931F92CDB7DEB721
S113085089838B017A0141E050E0BE016F5F7F4FD5
S113086084E00E947507A701B80184E40E9475071B
S11308700F90DF91CF911F910F91FF90EF9008950A
S1130880FC0191818081813A31F49D7F81E0913036
S1130890A9F080E00895813271F49B3029F48281BB
S11308A08093090181E008959A3039F4828180931C
S11308B0080181E0089580E0089580E00895FC0136
S11308C010820895FC01138212822EE231E03183FA
S11308D02083089548E050E082E00E941F040895B8
S11308E0683818F0E8E7E60F2EC066239CF46058D9
S11308F021E030E0A90102C0440F551F6A95E2F7D8
S1130900BA01DC011496EC9114976E2B14966C9337
S1130910E0E019C0E62FF0E0E251FF4FE491E1116D
S113092008C021E030E0FC013383228380E090E0C2
S11309300895EE2344F4DC0114962C91149722605C
S113094014962C93EF77DC0116962C9116972E179C
S113095009F440C017963C9117973E17D9F11896A1
S11309603C9118973E17B1F119963C9119973E178F
S113097089F11A963C911A973E1761F11B963C91A6
S11309803E1741F1222361F021E030E0622FA901FA
S1130990DC01A20FB31F16967C9171110AC003C02B
S11309A040E050E060E0DC01A40FB51F1696EC9324
S11309B007C061E0620F2F5F3F4F2630310531F7EA
S11309C0663041F421E030E0FC013383228380E08F
S11309D090E00895BC016C5F7F4F0E946A0481E03F
S11309E090E00895683818F0E8E7E60F25C066231C
S11309F09CF4605841E050E09A0102C0220F331F7A
S1130A006A95E2F72095DC0114963C911497232310
S1130A1014962C93E0E010C0E62FF0E0E251FF4F73
S1130A20E491EE23F1F044F4DC0114962C91149734
S1130A302D7F14962C93EF77DC01169636E0EE2387
S1130A4021F02C912E1301C01C92315011963111BA
S1130A50F6CFBC016C5F7F4F0E946A0481E090E096
S1130A60089580E090E00895FC01168217821086B4
S1130A701186128613861482BC016C5F7F4F0E941C
S1130A806A0408958DE392E00E945F0481E392E09A
S1130A900E94620408950895AF92BF92CF92DF92AC
S1130AA0EF92FF920F931F93CF93DF935C017B012F
S1130AB0C0E0D0E000E010E0F501EC0FFD1F4AE0DB
S1130AC050E06281C7010E9499066C016EE2C70181
S1130AD00E94E1058C0D9D1D080F191F2196C3303E
S1130AE0D10551F74AE050E0F5016581C7010E9444
S1130AF09906800F911FDF91CF911F910F91FF9065
S1130B00EF90DF90CF90BF90AF9008950F93FC01CA
S1130B108CE391E091838083628343832483058300
S1130B200F9108950F9300E020E040E060E08EE331
S1130B3092E00E9486050F910895CF92DF92EF9282
S1130B40FF920F931F93CF93DF936C0141155105CF
S1130B50B1F0062F172FEA01E12CF12CD8016D9189
S1130B608D01D601ED91FC910190F081E02DC6013B
S1130B700995E80EF91E2197209781F702C0E12C10
S1130B80F12CC701DF91CF911F910F91FF90EF904E
S1130B90DF90CF9008956115710581F0FB010190FC
S1130BA00020E9F73197AF01461B570BDC01ED91AB
S1130BB0FC910280F381E02D0995089580E090E096
S1130BC00895DC01ED91FC910190F081E02D0995EF
S1130BD008950F931F93CF93DF93EC016DE00E9470
S1130BE0E1058C016AE0CE010E94E105800F911FAE
S1130BF0DF91CF911F910F9108950F931F93CF937E
S1130C00DF93EC010E94CB058C01CE010E94E90523
S1130C10800F911FDF91CF911F910F9108956F92D3
S1130C207F928F929F92AF92BF92CF92DF92EF9278
S1130C30FF920F931F93CF93DF93CDB7DEB7A197A6
S1130C400FB6F894DEBF0FBECDBF6C01742E352FE6
S1130C50862F972F622E19A221E0261520F00F2E41
S1130C60FAE06F2EF02D7E01A1E2EA0EF11C862C33
S1130C70912CA12CB12C672D732FA50194010E94F6
S1130C80970CE22F732F022F132F242F352FF72DBC
S1130C906E9EF0191124B1E0EB1AF108FA3010F449
S1130CA0F05D01C0F95CD701FC93012B022B032BEF
S1130CB029F07E2E372F842F952FDDCFE114F104F8
S1130CC091F0F70101900020E9F73197AF014E1937
S1130CD05F09D601ED91FC910280F381E02DB7010B
S1130CE0C601099502C080E090E0A1960FB6F89481
S1130CF0DEBF0FBECDBFDF91CF911F910F91FF904B
S1130D00EF90DF90CF90BF90AF909F908F907F90A7
S1130D106F9008952115310549F4DC01ED91FC91A2
S1130D200190F081E02D642F099508950E940F062B
S1130D3008959A01462F50E060E070E00E948A0610
S1130D400895409147025091480220914502309104
S1130D50460242175307BCF4E8EEF0E09081957028
S1130D60E9F39091E80092FD19C08093F10080911D
S1130D7047029091480201968F739927892B19F4A1
S1130D808EEF8093E800809147029091480201968B
S1130D90909348028093470281E0089580E008958B
S1130DA0FF920F931F93CF93DF93082F192FF62EE3
S1130DB0862F880F8E5F0E94A10683E00E94A10601
S1130DC0FF2091F0C02FD12F10E0FE0184910E94EA
S1130DD0A106082F80E00E94A106802331F01F5F46
S1130DE021961F11F2CF01C081E0DF91CF911F91B5
S1130DF00F91FF900895FC012FEF260F662351F009
S1130E00A1EFB0E0CF0101963C913083215010F066
S1130E10FC01F8CF289884E680934A0208959FB78E
S1130E20F89487708093E9008091F2009FBF089541
S1130E3090914902992359F1552364F12FB7F894FD
S1130E4087708093E9008091F20090E08417950701
S1130E500CF4AC01442369F0E62FF72F94E6A1EFDC
S1130E60B0E0640F289890934A028C9181936E139A
S1130E70F9CF4115510539F08091F200811103C079
S1130E808BE68093E8002FBF842F952F08958FEF72
S1130E909FEF08958FEF9FEF0895CF93DF931F92F5
S1130EA0CDB7DEB741E050E0BE016F5F7F4F0E94D7
S1130EB01807019719F4898190E002C08FEF9FEF22
S1130EC00F90DF91CF9108952FB7F8948770809396
S1130ED0E9009091E800892F807295FF04C09091F9
S1130EE0F20080E4891B2FBF08952F923F924F9206
S1130EF05F926F927F928F929F92AF92BF92CF92A6
S1130F00DF92EF92FF920F931F93CF93DF93682E9C
S1130F105B014A0180914902882309F486C0411586
S1130F20510509F47BC08A010F2EFAEF7F2EF02DB4
S1130F30862D8770582E0F2EF9EECF2ED12CF02D42
S1130F400F2EF8EEEF2EF12CF02DE62DE0724E2E42
S1130F500F2EFAE33F2EF02DF62DF0742F2EC1EF55
S1130F60D0E0862D0E94640781110AC07A9409F4A6
S1130F705FC061E070E080E090E00E94CD0B4AC069
S1130F80282F30E0021713070CF4802F2FB7F894A2
S1130F90F6015082F701908195FF3BC0081B1109AF
S1130FA0442041F09FEF980F882341F1188291501B
S1130FB0E8F724C066202CF04FEF480F811113C0CE
S1130FC01DC04FEF480F8823C9F0F501942F3491C9
S1130FD03883915031969F3FD1F7842F90E001964A
S1130FE0A80EB91E0BC0F501942F3191388391508E
S1130FF0E0F7842F90E00196A80EB91EF7018081D6
S113100085FF19C00115110511F4211014C02FBF5B
S113101001C02FBF0115110509F0A3CF5D9884E627
S113102080934B02882D992D09C08FEF9FEF06C046
S11310308FEF9FEF03C0F7013082E9CFDF91CF91AB
S11310401F910F91FF90EF90DF90CF90BF90AF90E2
S11310509F908F907F906F905F904F903F902F90D4
S113106008951092E900109248021092470290935A
S11310704602809345020895BF92CF92DF92EF9289
S1131080FF920F931F93CF93DF93B42EC52ED82EC8
S1131090E42EF52EC62FD72F00E010E00DC0DD2082
S11310A01CF4FE01849101C088810E94A1060F5F97
S11310B01F4F2196882331F00E151F0581F78B2DC4
S11310C09C2D02C08FEF9FEFDF91CF911F910F9165
S11310D0FF90EF90DF90CF90BF900895CF93DF9370
S11310E0C62FD72FE8EEF0E0208122FFFDCF6C2F32
S11310F00E94FB068BEF8093E8008C2F9D2FDF91DD
S1131100CF910895CF93DF931F92CDB7DEB71982A5
S1131110CE0101960E94AF01CE0101960E940B04FC
S1131120898190E00F90DF91CF9108951F920F92E3
S11311300FB60F921124EF92FF920F931F932F93E8
S11311403F934F935F936F937F938F939F93AF934B
S1131150BF93EF93FF93CF93DF93CDB7DEB7619740
S1131160DEBFCDBF1092E9008091E80083FF0BC180
S113117068E0CE010A960E94FB0682EF8093E800A5
S11311809A85992334F4E8EEF0E0808180FFFDCF66
S113119003C08EEF8093E800892F807609F0D4C0D5
S11311A08B85811105C0E1EFF0E010821082E4C06C
S11311B0282F2D7F213009F4DFC0853051F4E8EE6B
S11311C0F0E0808180FFFDCF8C8580688093E30010
S11311D0D3C0863009F083C01D85123081F5E888BC
S11311E0F98880E090E00E9431080E94820899E02A
S11311F08E010F5F1F4FD801E92F1D92EA95E9F781
S1131200998392E09A8391E09E8390E898879AEF7D
S113121099872091470230914802275F3F4F3C83D2
S11312202B838D83C7010E94310849E050E0B80147
S113123080E00E943C080E94820821E09BC08889CB
S113124099890E943108123251F482E290E00E949E
S1131250170421E0892B09F08DC020E08BC01130E8
S113126089F488899989089731F481E0809344024C
S113127061EF71E023C08091440281111AC063E0E0
S113128072E01CC0133029F58C858823A9F08230C4
S113129039F46CE08EE192E00E94D006282F6AC0F7
S11312A08130C9F468E085E192E00E94D006282FDD
S11312B061C061EF71E002C06BE272E0611571051B
S11312C061F0FB01449150E080E80E943C0821E079
S11312D051C020E04FC020E04DC020E04BC087301B
S11312E009F44EC0883021F481E08093F10044C0B9
S11312F0893009F041C0937009F042C0EDEEF1E08D
S113130061E049EE50E02BEE30E001E08CEE90E03D
S11313100F2EFDEEEF2EF12CF02D16E3DA016C9377
S1131320D9010C937491DC017C93D7011C936F5FFA
S11313303196653099F7EAEEF0E08EE7808310820B
S11313408C858093490218C0888999890E94310844
S11313508E85811106C0CE010A960E94BB01282FFA
S113136009C0823031F4CE010A960E944004282F2D
S113137001C020E0222321F08EEF8093E80003C017
S113138081E28093EB0061960FB6F894DEBF0FBE46
S1131390CDBFDF91CF91FF91EF91BF91AF919F911D
S11313A08F917F916F915F914F913F912F911F91F9
S11313B00F91FF90EF900F900FBE0F901F90189514
S11313C08093E9008091F200882319F08AE38093E6
S11313D0E80008951F920F920FB60F9211242F93D5
S11313E03F934F935F936F937F938F939F93AF93A9
S11313F0BF93EF93FF93E1EEF0E08081108283FFCF
S11314000FC01092E90091E09093EB001092EC0071
S113141092E39093ED001092490298E09093F000CB
S113142082FF1BC083E00E94E00980914B02882365
S113143041F080914B02815080934B02811101C095
S11314405D9A80914A02882341F080914A0281503A
S113145080934A02811101C0289AFF91EF91BF91B4
S1131460AF919F918F917F916F915F914F913F9138
S11314702F910F900FBE0F901F9018951F920F92EF
S11314800FB60F9211242F933F934F935F936F9353
S11314907F938F939F93AF93BF93EF93FF93809129
S11314A0500290915102892B29F0E0915002F09161
S11314B051020995FF91EF91BF91AF919F918F9147
S11314C07F916F915F914F913F912F910F900FBE3C
S11314D00F901F9018951F920F920FB60F92112420
S11314E02F933F934F935F936F937F938F939F9328
S11314F0AF93BF93EF93FF93809152029091530265
S1131500892B29F0E0915202F09153020995FF9141
S1131510EF91BF91AF919F918F917F916F915F9167
S11315204F913F912F910F900FBE0F901F901895E0
S11315301F920F920FB60F9211242F933F934F9344
S11315405F936F937F938F939F93AF93BF93EF9327
S1131550FF938091540290915502892B29F0E091D8
S11315605402F09155020995FF91EF91BF91AF910B
S11315709F918F917F916F915F914F913F912F91A7
S11315800F900FBE0F901F9018951F920F920FB6D9
S11315900F9211242F933F934F935F936F937F93F5
S11315A08F939F93AF93BF93EF93FF9380915602D2
S11315B090915702892B29F0E0915602F09157023D
S11315C00995FF91EF91BF91AF919F918F917F9179
S11315D06F915F914F913F912F910F900FBE0F909C
S11315E01F9018951F920F920FB60F9211242F93EC
S11315F03F934F935F936F937F938F939F93AF9397
S1131600BF93EF93FF938091580290915902892BD5
S113161029F0E0915802F09159020995FF91EF9158
S1131620BF91AF919F918F917F916F915F914F91F6
S11316303F912F910F900FBE0F901F9018951F92FE
S11316400F920FB60F921124CF92DF92EF92FF9276
S11316502F933F934F935F936F937F938F939F93B6
S1131660AF93BF93CF93EF93FF93C0905102D09069
S11316705202E0905302F0905402C091500260E094
S113168070E480E090E020E030E0A9010E94970C33
S1131690CA01B901C20ED31EE41EF51E28EE33E0C2
S11316A040E050E00E94970CDC01CB01689412F8F2
S11316B0B695A795979587951694D1F78C0F8D3786
S11316C030F08D579FEFC91AD90AE90AF90A8093B5
S11316D05002C0925102D0925202E0925302F09210
S11316E054028091550290915602A0915702B091F4
S11316F058020196A11DB11D809355029093560284
S1131700A0935702B0935802FF91EF91CF91BF91EC
S1131710AF919F918F917F916F915F914F913F9185
S11317202F91FF90EF90DF90CF900F900FBE0F900E
S11317301F901895CF92DF92EF92FF923FB7F894E3
S11317408091550290915602A0915702B09158028F
S113175026B5A89B05C02F3F19F00196A11DB11D08
S11317603FBFCC24D82EE92EFA2EC20ED11CE11C88
S1131770F11C60E470E080E090E020E030E0A9013A
S11317800E94970CCA01B901A70196010E94870C17
S1131790FF90EF90DF90CF900895CF92DF92EF9279
S11317A0FF92CF93DF936B017C010E949A0BEB01B4
S11317B0C114D104E104F104A9F00E944B050E9474
S11317C09A0B6C1B7D0B683E734038F081E0C81A9D
S11317D0D108E108F108C851DC4FC114D104E10477
S11317E0F10459F7DF91CF91FF90EF90DF90CF9004
S11317F00895789484B5826084BD84B5816084BD85
S113180085B5826085BD85B5816085BDEEE6F0E075
S1131810808181608083E1E8F0E0108280818260D1
S11318208083E0E8F0E0808181608083E1E9F0E09A
S1131830808182608083808181608083E0E9F0E040
S1131840808181608083E1ECF0E08081846080832A
S1131850808182608083808181608083E3ECF0E01A
S1131860808181608083E0ECF0E08081826080830D
S1131870E2ECF0E0808181608083EAE7F0E080813F
S113188084608083808182608083808181608083A2
S1131890808180688083089581E19AE70197F1F758
S11318A000C000000E94F90B81E080936700E1E131
S11318B0FAE73197F1F700C0000093E080E80FB633
S11318C0F89480936100909361000FBE81E19AE7E0
S11318D00197F1F700C00000559A26E040EB54E070
S11318E060E070E084E991E00E94E9026EE371E057
S11318F084E991E00E94FD0590E28BB189278BB9C0
S1131900E1E1FAE73197F1F700C00000F6CFDB011F
S11319108F939F930E94BF0CBF91AF91A29F800DA4
S1131920911DA39F900DB29F900D11240895A1E2E3
S11319301A2EAA1BBB1BFD010DC0AA1FBB1FEE1F45
S1131940FF1FA217B307E407F50720F0A21BB30B90
S1131950E40BF50B661F771F881F991F1A9469F70C
S113196060957095809590959B01AC01BD01CF0168
S11319700895EE0FFF1F0590F491E02D09940E9445
S1131980CA0CA59F900DB49F900DA49F800D911D2E
S113199011240895A29FB001B39FC001A39F700DAD
S11319A0811D1124911DB29F700D811D1124911D63
S10919B00895F894FFCF36
S11319B600E10000000000000101000000004601F3
S11319C68F015C017D016C018B0100000000A50202
S11319D69D0532024B023D02800200000000ED0329
S11319E69D057004F2043405000000004C054D61A9
S10719F66B657900A0
S9030000FC
